{
  "transactions": [
    {
      "hash": "0x6f1339dc1447c953d13c0fa9724c30551599599744dfa27f5b26f4b79ffa6137",
      "transactionType": "CALL",
      "contractName": "TestnetERC20",
      "contractAddress": "0xFF34B3d4Aee8ddCd6F9AFFFB6Fe49bD371b8a357",
      "function": "approve(address,uint256)",
      "arguments": [
        "0xd764BAe2A84039D7620e268a4A87B02fdC06E375",
        "10000000000000000"
      ],
      "transaction": {
        "type": "0x02",
        "from": "0x743844f742168e0ace16e747745686bcc247146b",
        "to": "0xff34b3d4aee8ddcd6f9afffb6fe49bd371b8a357",
        "gas": "0xf97a",
        "value": "0x0",
        "data": "0x095ea7b3000000000000000000000000d764bae2a84039d7620e268a4a87b02fdc06e375000000000000000000000000000000000000000000000000002386f26fc10000",
        "nonce": "0x1e",
        "accessList": []
      },
      "additionalContracts": [],
      "isFixedGasLimit": false
    },
    {
      "hash": "0x2a367af6f16d6a9def21af8e5c5a579386b73e3c3c27aadd0031e896948918ad",
      "transactionType": "CALL",
      "contractName": null,
      "contractAddress": "0xd764BAe2A84039D7620e268a4A87B02fdC06E375",
      "function": "depositAsCollateral(address,uint256)",
      "arguments": [
        "0xFF34B3d4Aee8ddCd6F9AFFFB6Fe49bD371b8a357",
        "10000000000000000"
      ],
      "transaction": {
        "type": "0x02",
        "from": "0x743844f742168e0ace16e747745686bcc247146b",
        "to": "0xd764bae2a84039d7620e268a4a87b02fdc06e375",
        "gas": "0x54332",
        "value": "0x0",
        "data": "0x4bb45473000000000000000000000000ff34b3d4aee8ddcd6f9afffb6fe49bd371b8a357000000000000000000000000000000000000000000000000002386f26fc10000",
        "nonce": "0x1f",
        "accessList": []
      },
      "additionalContracts": [],
      "isFixedGasLimit": false
    }
  ],
  "receipts": [
    {
      "transactionHash": "0x6f1339dc1447c953d13c0fa9724c30551599599744dfa27f5b26f4b79ffa6137",
      "transactionIndex": "0x40",
      "blockHash": "0xbb4b42928e84eeb23c0b3bcc1d7359d9a6c805222af6c1464e5ec078a6a04023",
      "blockNumber": "0x4df019",
      "from": "0x743844f742168e0ace16E747745686bCC247146B",
      "to": "0xFF34B3d4Aee8ddCd6F9AFFFB6Fe49bD371b8a357",
      "cumulativeGasUsed": "0x729317",
      "gasUsed": "0xb49f",
      "contractAddress": null,
      "logs": [
        {
          "address": "0xFF34B3d4Aee8ddCd6F9AFFFB6Fe49bD371b8a357",
          "topics": [
            "0x8c5be1e5ebec7d5bd14f71427d1e84f3dd0314c0f7b2291e5b200ac8c7c3b925",
            "0x000000000000000000000000743844f742168e0ace16e747745686bcc247146b",
            "0x000000000000000000000000d764bae2a84039d7620e268a4a87b02fdc06e375"
          ],
          "data": "0x000000000000000000000000000000000000000000000000002386f26fc10000",
          "blockHash": "0xbb4b42928e84eeb23c0b3bcc1d7359d9a6c805222af6c1464e5ec078a6a04023",
          "blockNumber": "0x4df019",
          "transactionHash": "0x6f1339dc1447c953d13c0fa9724c30551599599744dfa27f5b26f4b79ffa6137",
          "transactionIndex": "0x40",
          "logIndex": "0x7f",
          "removed": false
        }
      ],
      "status": "0x1",
      "logsBloom": "0x00000000000000000000000200000000000000000000000000000000000000000000000000001000000000000000000000000000000000000000000000201000000000000000000000000000000000000000000000000000000000000000000000000000000000000000000002000000000000800000000000000000000000000000000000000000000000000000000000000000000000000000000000000000020000000000000000000000000000000080000800000000000000000000000000000000040000000000000000000000000000000000000000000000000000000010000000000000000000000000000000000000000000000000000000010000",
      "type": "0x2",
      "effectiveGasPrice": "0x1bcc2f9e6f"
    },
    {
      "transactionHash": "0x2a367af6f16d6a9def21af8e5c5a579386b73e3c3c27aadd0031e896948918ad",
      "transactionIndex": "0x41",
      "blockHash": "0xbb4b42928e84eeb23c0b3bcc1d7359d9a6c805222af6c1464e5ec078a6a04023",
      "blockNumber": "0x4df019",
      "from": "0x743844f742168e0ace16E747745686bCC247146B",
      "to": "0xd764BAe2A84039D7620e268a4A87B02fdC06E375",
      "cumulativeGasUsed": "0x762c40",
      "gasUsed": "0x39929",
      "contractAddress": null,
      "logs": [
        {
          "address": "0xFF34B3d4Aee8ddCd6F9AFFFB6Fe49bD371b8a357",
          "topics": [
            "0xddf252ad1be2c89b69c2b068fc378daa952ba7f163c4a11628f55a4df523b3ef",
            "0x000000000000000000000000743844f742168e0ace16e747745686bcc247146b",
            "0x000000000000000000000000d764bae2a84039d7620e268a4a87b02fdc06e375"
          ],
          "data": "0x000000000000000000000000000000000000000000000000002386f26fc10000",
          "blockHash": "0xbb4b42928e84eeb23c0b3bcc1d7359d9a6c805222af6c1464e5ec078a6a04023",
          "blockNumber": "0x4df019",
          "transactionHash": "0x2a367af6f16d6a9def21af8e5c5a579386b73e3c3c27aadd0031e896948918ad",
          "transactionIndex": "0x41",
          "logIndex": "0x80",
          "removed": false
        },
        {
          "address": "0xFF34B3d4Aee8ddCd6F9AFFFB6Fe49bD371b8a357",
          "topics": [
            "0x8c5be1e5ebec7d5bd14f71427d1e84f3dd0314c0f7b2291e5b200ac8c7c3b925",
            "0x000000000000000000000000743844f742168e0ace16e747745686bcc247146b",
            "0x000000000000000000000000d764bae2a84039d7620e268a4a87b02fdc06e375"
          ],
          "data": "0x0000000000000000000000000000000000000000000000000000000000000000",
          "blockHash": "0xbb4b42928e84eeb23c0b3bcc1d7359d9a6c805222af6c1464e5ec078a6a04023",
          "blockNumber": "0x4df019",
          "transactionHash": "0x2a367af6f16d6a9def21af8e5c5a579386b73e3c3c27aadd0031e896948918ad",
          "transactionIndex": "0x41",
          "logIndex": "0x81",
          "removed": false
        },
        {
          "address": "0xFF34B3d4Aee8ddCd6F9AFFFB6Fe49bD371b8a357",
          "topics": [
            "0x8c5be1e5ebec7d5bd14f71427d1e84f3dd0314c0f7b2291e5b200ac8c7c3b925",
            "0x000000000000000000000000d764bae2a84039d7620e268a4a87b02fdc06e375",
            "0x0000000000000000000000006ae43d3271ff6888e7fc43fd7321a503ff738951"
          ],
          "data": "0x000000000000000000000000000000000000000000000000002386f26fc10000",
          "blockHash": "0xbb4b42928e84eeb23c0b3bcc1d7359d9a6c805222af6c1464e5ec078a6a04023",
          "blockNumber": "0x4df019",
          "transactionHash": "0x2a367af6f16d6a9def21af8e5c5a579386b73e3c3c27aadd0031e896948918ad",
          "transactionIndex": "0x41",
          "logIndex": "0x82",
          "removed": false
        },
        {
          "address": "0x6Ae43d3271ff6888e7Fc43Fd7321a503ff738951",
          "topics": [
            "0x804c9b842b2748a22bb64b345453a3de7ca54a6ca45ce00d415894979e22897a",
            "0x000000000000000000000000ff34b3d4aee8ddcd6f9afffb6fe49bd371b8a357"
          ],
          "data": "0x00000000000000000000000000000000000000000001a93c4488588ad3e2cdbc0000000000000000000000000000000000000000002a5fcac45f5fcce3aed5d2000000000000000000000000000000000000000000081f0aafdacb1b8d76ae8700000000000000000000000000000000000000000345b58330ee1d3309a70ed200000000000000000000000000000000000000000348ce899b832cbf2a8b3a11",
          "blockHash": "0xbb4b42928e84eeb23c0b3bcc1d7359d9a6c805222af6c1464e5ec078a6a04023",
          "blockNumber": "0x4df019",
          "transactionHash": "0x2a367af6f16d6a9def21af8e5c5a579386b73e3c3c27aadd0031e896948918ad",
          "transactionIndex": "0x41",
          "logIndex": "0x83",
          "removed": false
        },
        {
          "address": "0xFF34B3d4Aee8ddCd6F9AFFFB6Fe49bD371b8a357",
          "topics": [
            "0xddf252ad1be2c89b69c2b068fc378daa952ba7f163c4a11628f55a4df523b3ef",
            "0x000000000000000000000000d764bae2a84039d7620e268a4a87b02fdc06e375",
            "0x00000000000000000000000029598b72eb5cebd806c5dcd549490fda35b13cd8"
          ],
          "data": "0x000000000000000000000000000000000000000000000000002386f26fc10000",
          "blockHash": "0xbb4b42928e84eeb23c0b3bcc1d7359d9a6c805222af6c1464e5ec078a6a04023",
          "blockNumber": "0x4df019",
          "transactionHash": "0x2a367af6f16d6a9def21af8e5c5a579386b73e3c3c27aadd0031e896948918ad",
          "transactionIndex": "0x41",
          "logIndex": "0x84",
          "removed": false
        },
        {
          "address": "0xFF34B3d4Aee8ddCd6F9AFFFB6Fe49bD371b8a357",
          "topics": [
            "0x8c5be1e5ebec7d5bd14f71427d1e84f3dd0314c0f7b2291e5b200ac8c7c3b925",
            "0x000000000000000000000000d764bae2a84039d7620e268a4a87b02fdc06e375",
            "0x0000000000000000000000006ae43d3271ff6888e7fc43fd7321a503ff738951"
          ],
          "data": "0x0000000000000000000000000000000000000000000000000000000000000000",
          "blockHash": "0xbb4b42928e84eeb23c0b3bcc1d7359d9a6c805222af6c1464e5ec078a6a04023",
          "blockNumber": "0x4df019",
          "transactionHash": "0x2a367af6f16d6a9def21af8e5c5a579386b73e3c3c27aadd0031e896948918ad",
          "transactionIndex": "0x41",
          "logIndex": "0x85",
          "removed": false
        },
        {
          "address": "0x29598b72eb5CeBd806C5dCD549490FdA35B13cD8",
          "topics": [
            "0xddf252ad1be2c89b69c2b068fc378daa952ba7f163c4a11628f55a4df523b3ef",
            "0x0000000000000000000000000000000000000000000000000000000000000000",
            "0x000000000000000000000000d764bae2a84039d7620e268a4a87b02fdc06e375"
          ],
          "data": "0x000000000000000000000000000000000000000000000000002386f26fc10000",
          "blockHash": "0xbb4b42928e84eeb23c0b3bcc1d7359d9a6c805222af6c1464e5ec078a6a04023",
          "blockNumber": "0x4df019",
          "transactionHash": "0x2a367af6f16d6a9def21af8e5c5a579386b73e3c3c27aadd0031e896948918ad",
          "transactionIndex": "0x41",
          "logIndex": "0x86",
          "removed": false
        },
        {
          "address": "0x29598b72eb5CeBd806C5dCD549490FdA35B13cD8",
          "topics": [
            "0x458f5fa412d0f69b08dd84872b0215675cc67bc1d5b6fd93300a1c3878b86196",
            "0x000000000000000000000000d764bae2a84039d7620e268a4a87b02fdc06e375",
            "0x000000000000000000000000d764bae2a84039d7620e268a4a87b02fdc06e375"
          ],
          "data": "0x000000000000000000000000000000000000000000000000002386f26fc10000000000000000000000000000000000000000000000000000000000000000000000000000000000000000000000000000000000000345b58330ee1d3309a70ed2",
          "blockHash": "0xbb4b42928e84eeb23c0b3bcc1d7359d9a6c805222af6c1464e5ec078a6a04023",
          "blockNumber": "0x4df019",
          "transactionHash": "0x2a367af6f16d6a9def21af8e5c5a579386b73e3c3c27aadd0031e896948918ad",
          "transactionIndex": "0x41",
          "logIndex": "0x87",
          "removed": false
        },
        {
          "address": "0x6Ae43d3271ff6888e7Fc43Fd7321a503ff738951",
          "topics": [
            "0x00058a56ea94653cdf4f152d227ace22d4c00ad99e2a43f58cb7d9e3feb295f2",
            "0x000000000000000000000000ff34b3d4aee8ddcd6f9afffb6fe49bd371b8a357",
            "0x000000000000000000000000d764bae2a84039d7620e268a4a87b02fdc06e375"
          ],
          "data": "0x",
          "blockHash": "0xbb4b42928e84eeb23c0b3bcc1d7359d9a6c805222af6c1464e5ec078a6a04023",
          "blockNumber": "0x4df019",
          "transactionHash": "0x2a367af6f16d6a9def21af8e5c5a579386b73e3c3c27aadd0031e896948918ad",
          "transactionIndex": "0x41",
          "logIndex": "0x88",
          "removed": false
        },
        {
          "address": "0x6Ae43d3271ff6888e7Fc43Fd7321a503ff738951",
          "topics": [
            "0x2b627736bca15cd5381dcf80b0bf11fd197d01a037c52b927a881a10fb73ba61",
            "0x000000000000000000000000ff34b3d4aee8ddcd6f9afffb6fe49bd371b8a357",
            "0x000000000000000000000000d764bae2a84039d7620e268a4a87b02fdc06e375",
            "0x0000000000000000000000000000000000000000000000000000000000000000"
          ],
          "data": "0x000000000000000000000000d764bae2a84039d7620e268a4a87b02fdc06e375000000000000000000000000000000000000000000000000002386f26fc10000",
          "blockHash": "0xbb4b42928e84eeb23c0b3bcc1d7359d9a6c805222af6c1464e5ec078a6a04023",
          "blockNumber": "0x4df019",
          "transactionHash": "0x2a367af6f16d6a9def21af8e5c5a579386b73e3c3c27aadd0031e896948918ad",
          "transactionIndex": "0x41",
          "logIndex": "0x89",
          "removed": false
        }
      ],
      "status": "0x1",
      "logsBloom": "0x000000000000080000800002000000000000008000008000000000000000000000000000000010000000000000040000000400000020000000000000002010000000000000000000000000080800000000000000000000000000a0040000200000000000020000000000000002000800000000800000000000000010000000002000000081000000000000000000000000200000000000000000000000000000020000000000000000000000000000000080000800000000000000000002010002000002040010000000002040000000000000000000000000000000000020000010000000000000000000000000000040000000000001000000400000010000",
      "type": "0x2",
      "effectiveGasPrice": "0x1bcc2f9e6f"
    }
  ],
  "libraries": [],
  "pending": [],
  "returns": {},
  "timestamp": 1705575759,
  "chain": 11155111,
  "multi": false,
  "commit": "cefb230"
}