{
  "transactions": [
    {
      "hash": "0xc486d873609ad4f68ee620a0619f71a088ec963564cc00915570e26473cd6529",
      "transactionType": "CREATE",
      "contractName": "MockGho",
      "contractAddress": "0xCD8Ad722bDC1b79434C30Ae8d38552bfbee67234",
      "function": null,
      "arguments": null,
      "transaction": {
        "type": "0x02",
        "from": "0x743844f742168e0ace16e747745686bcc247146b",
        "gas": "0x4b480",
        "value": "0x0",
        "data": "0x608060405234801561001057600080fd5b50610354806100206000396000f3fe608060405234801561001057600080fd5b50600436106100625760003560e01c806323b872dd1461006757806340c10f191461008f5780636ebcf607146100a457806370a08231146100d25780639dc29fac146100fb578063a9059cbb1461010e575b600080fd5b61007a61007536600461025a565b610121565b60405190151581526020015b60405180910390f35b6100a261009d366004610296565b610187565b005b6100c46100b23660046102c0565b60006020819052908152604090205481565b604051908152602001610086565b6100c46100e03660046102c0565b6001600160a01b031660009081526020819052604090205490565b6100a2610109366004610296565b6101b8565b61007a61011c366004610296565b6101e0565b6001600160a01b03831660009081526020819052604081208054839190839061014b9084906102f8565b90915550506001600160a01b0383166000908152602081905260408120805484929061017890849061030b565b90915550600195945050505050565b6001600160a01b038216600090815260208190526040812080548392906101af90849061030b565b90915550505050565b6001600160a01b038216600090815260208190526040812080548392906101af9084906102f8565b336000908152602081905260408120805483919083906102019084906102f8565b90915550506001600160a01b0383166000908152602081905260408120805484929061022e90849061030b565b9091555060019150505b92915050565b80356001600160a01b038116811461025557600080fd5b919050565b60008060006060848603121561026f57600080fd5b6102788461023e565b92506102866020850161023e565b9150604084013590509250925092565b600080604083850312156102a957600080fd5b6102b28361023e565b946020939093013593505050565b6000602082840312156102d257600080fd5b6102db8261023e565b9392505050565b634e487b7160e01b600052601160045260246000fd5b81810381811115610238576102386102e2565b80820180821115610238576102386102e256fea26469706673582212203068dffcdbe56c37106be9626d1e572f909e5eaa7b14a73ccbbcfb7701e12c7964736f6c63430008170033",
        "nonce": "0x1a",
        "accessList": []
      },
      "additionalContracts": [],
      "isFixedGasLimit": false
    },
    {
      "hash": "0x1f8e3e91441c4e25c3acdffdf38c7c29d8a038e467f602e34a4113b8a860e401",
      "transactionType": "CREATE",
      "contractName": "GhoBox",
      "contractAddress": "0x65839AC8ED06ba60A7fa8E2989bC7cE9a1531502",
      "function": null,
      "arguments": [
        "0xc8c0Cf9436F4862a8F60Ce680Ca5a9f0f99b5ded",
        "0xcC6114B983E4Ed2737E9BD3961c9924e6216c704",
        "0x326C977E6efc84E512bB9C30f76E30c160eD06FB",
        "0x1035CabC275068e0F4b745A29CEDf38E13aF41b1",
        "16015286601757825753",
        "0xCD8Ad722bDC1b79434C30Ae8d38552bfbee67234"
      ],
      "transaction": {
        "type": "0x02",
        "from": "0x743844f742168e0ace16e747745686bcc247146b",
        "gas": "0x1b6dcd",
        "value": "0x0",
        "data": "0x6101406040523480156200001257600080fd5b5060405162001922380380620019228339810160408190526200003591620000e0565b826001600160a01b03811662000065576040516335fdcccd60e21b81526000600482015260240160405180910390fd5b6001600160a01b0390811660805295861660a05293851660c05291841660e0526001600160401b039091166101005282166101205260018054919092166001600160a01b03199182161790915560028054909116331790556200016f565b80516001600160a01b0381168114620000db57600080fd5b919050565b60008060008060008060c08789031215620000fa57600080fd5b6200010587620000c3565b95506200011560208801620000c3565b94506200012560408801620000c3565b93506200013560608801620000c3565b60808801519093506001600160401b03811681146200015357600080fd5b91506200016360a08801620000c3565b90509295509295509295565b60805160a05160c05160e051610100516101205161172b620001f7600039600081816102a101526105f4015260008181610116015281816105b001526109820152600081816101f401526105d201526000818161015501528181610ae20152610cca01526000818161027a01528181610a990152610c8101526000610251015261172b6000f3fe608060405234801561001057600080fd5b50600436106100cf5760003560e01c8063647846a51161008c57806385572ffb1161006657806385572ffb1461023c578063b0f479a11461024f578063d1af1ca914610275578063f887ea401461029c57600080fd5b8063647846a5146101ef578063687199f71461021657806383b0befc1461022957600080fd5b806301ffc9a7146100d45780630ae2fe5c146100fc578063146ffb261461011157806316f0115b14610150578063194370d81461018f57806350d282fc146101a2575b600080fd5b6100e76100e2366004611052565b6102c3565b60405190151581526020015b60405180910390f35b61010f61010a36600461107c565b6102fa565b005b6101387f000000000000000000000000000000000000000000000000000000000000000081565b6040516001600160401b0390911681526020016100f3565b6101777f000000000000000000000000000000000000000000000000000000000000000081565b6040516001600160a01b0390911681526020016100f3565b61010f61019d3660046110b3565b6104f7565b6101b56101b03660046110d0565b610528565b604080516001600160a01b03909616865260208601949094529284019190915263ffffffff1660608301521515608082015260a0016100f3565b6101777f000000000000000000000000000000000000000000000000000000000000000081565b600054610177906001600160a01b031681565b600154610177906001600160a01b031681565b61010f61024a3660046110e9565b61057f565b7f0000000000000000000000000000000000000000000000000000000000000000610177565b6101777f000000000000000000000000000000000000000000000000000000000000000081565b6101777f000000000000000000000000000000000000000000000000000000000000000081565b60006001600160e01b031982166385572ffb60e01b14806102f457506001600160e01b031982166301ffc9a760e01b145b92915050565b600380546040805160a08101825233808252602080830188815283850188815263ffffffff8088166060808801828152600060808a018181526001808e018f559d909152985160048c027fc2575a0e9e593c00f959f8c92f12db2869c3395a3b0502d05e2516446f71f85b810180546001600160a01b03939093166001600160a01b03199093169290921790915595517fc2575a0e9e593c00f959f8c92f12db2869c3395a3b0502d05e2516446f71f85c87015593517fc2575a0e9e593c00f959f8c92f12db2869c3395a3b0502d05e2516446f71f85d86015592517fc2575a0e9e593c00f959f8c92f12db2869c3395a3b0502d05e2516446f71f85e9094018054975115156401000000000264ffffffffff199098169490921693909317959095179094558451938401855291835282810187905282840191909152915192936104a993909261047792910181516001600160a01b031681526020808301519082015260409182015163ffffffff169181019190915260600190565b60408051601f19818403018152908290526104959291602001611189565b604051602081830303815290604052610590565b50604080518481526020810184905263ffffffff831681830152905133917fe74143de12ba97c91f8a61390e21303257df31a843b6fccf7a0b3ce30afe8d03919081900360600190a2505050565b6002546001600160a01b0316330361052557600080546001600160a01b0319166001600160a01b0383161790555b50565b6003818154811061053857600080fd5b600091825260209091206004909102018054600182015460028301546003909301546001600160a01b039092169350919063ffffffff811690640100000000900460ff1685565b61052561058b8261139d565b610945565b6040805160a08101909152600080546001600160a01b031660c0830152907f0000000000000000000000000000000000000000000000000000000000000000907f0000000000000000000000000000000000000000000000000000000000000000907f00000000000000000000000000000000000000000000000000000000000000009084908060e0810160408051808303601f1901815291815290825260208083018a9052815160008082529181018352929091019190610674565b604080518082019091526000808252602082015281526020019060019003908161064d5790505b508152602001846001600160a01b031681526020016106db604051806020016040528062030d4081525060408051915160248084019190915281518084039091018152604490920190526020810180516001600160e01b03166397a657c960e01b17905290565b90526040516320487ded60e01b81529091506000906001600160a01b038416906320487ded906107119088908690600401611449565b602060405180830381865afa15801561072e573d6000803e3d6000fd5b505050506040513d601f19601f820116820180604052508101906107529190611525565b6040516370a0823160e01b81523060048201529091506001600160a01b038516906370a0823190602401602060405180830381865afa158015610799573d6000803e3d6000fd5b505050506040513d601f19601f820116820180604052508101906107bd9190611525565b811115610855576040516370a0823160e01b81523060048201526001600160a01b038516906370a0823190602401602060405180830381865afa158015610808573d6000803e3d6000fd5b505050506040513d601f19601f8201168201806040525081019061082c9190611525565b604051634787a10360e11b81526004810191909152602481018290526044015b60405180910390fd5b60405163095ea7b360e01b81526001600160a01b0384811660048301526024820183905285169063095ea7b3906044016020604051808303816000875af11580156108a4573d6000803e3d6000fd5b505050506040513d601f19601f820116820180604052508101906108c8919061153e565b506040516396f4e9f960e01b81526001600160a01b038416906396f4e9f9906108f79088908690600401611449565b6020604051808303816000875af1158015610916573d6000803e3d6000fd5b505050506040513d601f19601f8201168201806040525081019061093a9190611525565b979650505050505050565b6000816040015180602001905181019061095f9190611560565b6020830151600054919250906001600160a01b0380841691161415806109b757507f00000000000000000000000000000000000000000000000000000000000000006001600160401b0316816001600160401b031614155b156109d557604051636edaef2f60e11b815260040160405180910390fd5b60008084606001518060200190518101906109f0919061157d565b90925090506001826001811115610a0957610a09611123565b03610a1d57610a1781610a64565b50610a5d565b6000826001811115610a3157610a31611123565b03610a4457610a3f81610bbc565b610a5d565b6040516393c19f6160e01b815260040160405180910390fd5b5050505050565b60008082806020019051810190610a7b9190611621565b6020810151815160405163a415bcad60e01b81526001600160a01b037f0000000000000000000000000000000000000000000000000000000000000000811660048301526024820193909352600260448201526000606482015290821660848201529192507f0000000000000000000000000000000000000000000000000000000000000000169063a415bcad9060a401600060405180830381600087803b158015610b2657600080fd5b505af1158015610b3a573d6000803e3d6000fd5b505050604080830151815163ffffffff9091166020820152610b60925060009101610477565b915080600001516001600160a01b03167f3dec94b8abc8f801eaade1616d3aadd3114b556a284267905e0a053b2df39892826020015184604051610bae929190918252602082015260400190565b60405180910390a250919050565b600081806020019051810190610bd29190611687565b9050600060038263ffffffff1681548110610bef57610bef6116a2565b906000526020600020906004020190508060030160049054906101000a900460ff1615610c2f5760405163235707d560e21b815260040160405180910390fd5b60038101805464ff0000000019166401000000001790558054600182015460028301546001600160a01b03909216916000610c6a82846116b8565b60405163a415bcad60e01b81526001600160a01b037f0000000000000000000000000000000000000000000000000000000000000000818116600484015260248301879052600260448401526000606484015287821660848401529293507f0000000000000000000000000000000000000000000000000000000000000000169063a415bcad9060a401600060405180830381600087803b158015610d0e57600080fd5b505af1158015610d22573d6000803e3d6000fd5b50506001546040516340c10f1960e01b8152306004820152602481018790526001600160a01b0390911692506340c10f199150604401600060405180830381600087803b158015610d7257600080fd5b505af1158015610d86573d6000803e3d6000fd5b50506001546040516340c10f1960e01b8152306004820152602481018890526001600160a01b0390911692506340c10f199150604401600060405180830381600087803b158015610dd657600080fd5b505af1158015610dea573d6000803e3d6000fd5b5050600154610e0692506001600160a01b031690508684610e61565b604080518581526020810185905263ffffffff89168183015290516001600160a01b038716917f3518d21eeca65ee9bbd162eb4bb897a48f2e226c5b204104e5bfd0863a953fa6919081900360600190a25050505050505050565b604080516001600160a01b038416602482015260448082018490528251808303909101815260649091019091526020810180516001600160e01b031663a9059cbb60e01b179052610eb3908490610eb8565b505050565b6000610ecd6001600160a01b03841683610f1b565b90508051600014158015610ef2575080806020019051810190610ef0919061153e565b155b15610eb357604051635274afe760e01b81526001600160a01b038416600482015260240161084c565b6060610f2983836000610f30565b9392505050565b606081471015610f555760405163cd78605960e01b815230600482015260240161084c565b600080856001600160a01b03168486604051610f7191906116d9565b60006040518083038185875af1925050503d8060008114610fae576040519150601f19603f3d011682016040523d82523d6000602084013e610fb3565b606091505b5091509150610fc3868383610fcd565b9695505050505050565b606082610fe257610fdd82611029565b610f29565b8151158015610ff957506001600160a01b0384163b155b1561102257604051639996b31560e01b81526001600160a01b038516600482015260240161084c565b5080610f29565b8051156110395780518082602001fd5b604051630a12f52160e11b815260040160405180910390fd5b60006020828403121561106457600080fd5b81356001600160e01b031981168114610f2957600080fd5b6000806040838503121561108f57600080fd5b50508035926020909101359150565b6001600160a01b038116811461052557600080fd5b6000602082840312156110c557600080fd5b8135610f298161109e565b6000602082840312156110e257600080fd5b5035919050565b6000602082840312156110fb57600080fd5b81356001600160401b0381111561111157600080fd5b820160a08185031215610f2957600080fd5b634e487b7160e01b600052602160045260246000fd5b60005b8381101561115457818101518382015260200161113c565b50506000910152565b60008151808452611175816020860160208601611139565b601f01601f19169290920160200192915050565b6000600284106111a957634e487b7160e01b600052602160045260246000fd5b838252604060208301526111c0604083018461115d565b949350505050565b634e487b7160e01b600052604160045260246000fd5b604080519081016001600160401b0381118282101715611200576112006111c8565b60405290565b60405160a081016001600160401b0381118282101715611200576112006111c8565b604051601f8201601f191681016001600160401b0381118282101715611250576112506111c8565b604052919050565b80356001600160401b038116811461126f57600080fd5b919050565b60006001600160401b0382111561128d5761128d6111c8565b50601f01601f191660200190565b600082601f8301126112ac57600080fd5b81356112bf6112ba82611274565b611228565b8181528460208386010111156112d457600080fd5b816020850160208301376000918101602001919091529392505050565b600082601f83011261130257600080fd5b813560206001600160401b0382111561131d5761131d6111c8565b61132b818360051b01611228565b82815260069290921b8401810191818101908684111561134a57600080fd5b8286015b8481101561139257604081890312156113675760008081fd5b61136f6111de565b813561137a8161109e565b8152818501358582015283529183019160400161134e565b509695505050505050565b600060a082360312156113af57600080fd5b6113b7611206565b823581526113c760208401611258565b602082015260408301356001600160401b03808211156113e657600080fd5b6113f23683870161129b565b6040840152606085013591508082111561140b57600080fd5b6114173683870161129b565b6060840152608085013591508082111561143057600080fd5b5061143d368286016112f1565b60808301525092915050565b600060406001600160401b03851683526020604081850152845160a0604086015261147760e086018261115d565b905081860151603f1980878403016060880152611494838361115d565b6040890151888203830160808a01528051808352908601945060009350908501905b808410156114e857845180516001600160a01b03168352860151868301529385019360019390930192908601906114b6565b5060608901516001600160a01b031660a08901526080890151888203830160c08a01529550611517818761115d565b9a9950505050505050505050565b60006020828403121561153757600080fd5b5051919050565b60006020828403121561155057600080fd5b81518015158114610f2957600080fd5b60006020828403121561157257600080fd5b8151610f298161109e565b6000806040838503121561159057600080fd5b82516002811061159f57600080fd5b60208401519092506001600160401b038111156115bb57600080fd5b8301601f810185136115cc57600080fd5b80516115da6112ba82611274565b8181528660208385010111156115ef57600080fd5b611600826020830160208601611139565b8093505050509250929050565b805163ffffffff8116811461126f57600080fd5b60006060828403121561163357600080fd5b604051606081018181106001600160401b0382111715611655576116556111c8565b60405282516116638161109e565b81526020838101519082015261167b6040840161160d565b60408201529392505050565b60006020828403121561169957600080fd5b610f298261160d565b634e487b7160e01b600052603260045260246000fd5b808201808211156102f457634e487b7160e01b600052601160045260246000fd5b600082516116eb818460208701611139565b919091019291505056fea2646970667358221220f4795223331702cc38dbb33f8f47ab1431cc5e5265fb0773b56e030fbb640d0364736f6c63430008170033000000000000000000000000c8c0cf9436f4862a8f60ce680ca5a9f0f99b5ded000000000000000000000000cc6114b983e4ed2737e9bd3961c9924e6216c704000000000000000000000000326c977e6efc84e512bb9c30f76e30c160ed06fb0000000000000000000000001035cabc275068e0f4b745a29cedf38e13af41b1000000000000000000000000000000000000000000000000de41ba4fc9d91ad9000000000000000000000000cd8ad722bdc1b79434c30ae8d38552bfbee67234",
        "nonce": "0x1b",
        "accessList": []
      },
      "additionalContracts": [],
      "isFixedGasLimit": false
    },
    {
      "hash": "0x25b2d8746d5443652c03855c90d98fa6ef0f16d80f2b79648da1d2b6c4336891",
      "transactionType": "CALL",
      "contractName": null,
      "contractAddress": "0x8584Fa491eAF3B959dE0888b5B5b9EF60660eb02",
      "function": "approveDelegation(address,uint256)",
      "arguments": [
        "0x65839AC8ED06ba60A7fa8E2989bC7cE9a1531502",
        "115792089237316195423570985008687907853269984665640564039457584007913129639935"
      ],
      "transaction": {
        "type": "0x02",
        "from": "0x743844f742168e0ace16e747745686bcc247146b",
        "to": "0x8584fa491eaf3b959de0888b5b5b9ef60660eb02",
        "gas": "0x12345",
        "value": "0x0",
        "data": "0xc04a8a1000000000000000000000000065839ac8ed06ba60a7fa8e2989bc7ce9a1531502ffffffffffffffffffffffffffffffffffffffffffffffffffffffffffffffff",
        "nonce": "0x1c",
        "accessList": []
      },
      "additionalContracts": [],
      "isFixedGasLimit": false
    },
    {
      "hash": "0x983d1c21dc0bf96c5018af872ffa38786727a15599a6831771f6711bf2d523a2",
      "transactionType": "CALL",
      "contractName": "GhoBox",
      "contractAddress": "0x65839AC8ED06ba60A7fa8E2989bC7cE9a1531502",
      "function": "setTargetGhoBoxAddress(address)",
      "arguments": [
        "0x43EDbC85169dC2601Cf5Fe1DbD07f5B55B60DA2c"
      ],
      "transaction": {
        "type": "0x02",
        "from": "0x743844f742168e0ace16e747745686bcc247146b",
        "to": "0x65839ac8ed06ba60a7fa8e2989bc7ce9a1531502",
        "gas": "0x10770",
        "value": "0x0",
        "data": "0x194370d800000000000000000000000043edbc85169dc2601cf5fe1dbd07f5b55b60da2c",
        "nonce": "0x1d",
        "accessList": []
      },
      "additionalContracts": [],
      "isFixedGasLimit": false
    },
    {
      "hash": "0x3e43e2dbb720447092cead182a1d77d758d763c30174a6b7305045542e3200a5",
      "transactionType": "CALL",
      "contractName": "LinkToken",
      "contractAddress": "0x326C977E6efc84E512bB9C30f76E30c160eD06FB",
      "function": "transfer(address,uint256)",
      "arguments": [
        "0x65839AC8ED06ba60A7fa8E2989bC7cE9a1531502",
        "1000000000000000000"
      ],
      "transaction": {
        "type": "0x02",
        "from": "0x743844f742168e0ace16e747745686bcc247146b",
        "to": "0x326c977e6efc84e512bb9c30f76e30c160ed06fb",
        "gas": "0x11783",
        "value": "0x0",
        "data": "0xa9059cbb00000000000000000000000065839ac8ed06ba60a7fa8e2989bc7ce9a15315020000000000000000000000000000000000000000000000000de0b6b3a7640000",
        "nonce": "0x1e",
        "accessList": []
      },
      "additionalContracts": [],
      "isFixedGasLimit": false
    }
  ],
  "receipts": [
    {
      "transactionHash": "0xc486d873609ad4f68ee620a0619f71a088ec963564cc00915570e26473cd6529",
      "transactionIndex": "0x0",
      "blockHash": "0x4d4c0c0821a17ebe1e1a00c020f7ef4a0dde038441ec8295ca7252fc87957226",
      "blockNumber": "0x2adc54a",
      "from": "0x743844f742168e0ace16E747745686bCC247146B",
      "to": null,
      "cumulativeGasUsed": "0x39ec2",
      "gasUsed": "0x39ec2",
      "contractAddress": "0xCD8Ad722bDC1b79434C30Ae8d38552bfbee67234",
      "logs": [
        {
          "address": "0x0000000000000000000000000000000000001010",
          "topics": [
            "0x4dfe1bbbcf077ddc3e01291eea2d5c70c2b422b415d95645b9adcfd678cb1d63",
            "0x0000000000000000000000000000000000000000000000000000000000001010",
            "0x000000000000000000000000743844f742168e0ace16e747745686bcc247146b",
            "0x0000000000000000000000004cefb7df2ff89a05ddd0176de11e01ef0cf7ed84"
          ],
          "data": "0x000000000000000000000000000000000000000000000000001949541b305800000000000000000000000000000000000000000000000000032f2e222315c994000000000000000000000000000000000000000000000052151a59b8cce16ce50000000000000000000000000000000000000000000000000315e4ce07e571940000000000000000000000000000000000000000000000521533a30ce811c4e5",
          "blockHash": "0x4d4c0c0821a17ebe1e1a00c020f7ef4a0dde038441ec8295ca7252fc87957226",
          "blockNumber": "0x2adc54a",
          "transactionHash": "0xc486d873609ad4f68ee620a0619f71a088ec963564cc00915570e26473cd6529",
          "transactionIndex": "0x0",
          "logIndex": "0x0",
          "removed": false
        }
      ],
      "status": "0x1",
      "logsBloom": "0x00000000000000000000000000000000000000000000000000000000000000000000000000001000000000000000000000008000000000000000000000000000000000000000000000000000000000800000000001000000000100000000000000000001000000000000000000000000000000800000000080000000000000000000000000000020000000000000000000000000000000000000000000000000200000000000000000000000000000000080000000000000000000000000004000000000000000000001000000000000000000000000000000100000000000000000000000000000000000000000000000000000000000000000000000100000",
      "type": "0x2",
      "effectiveGasPrice": "0x6fc23ac10"
    },
    {
      "transactionHash": "0x1f8e3e91441c4e25c3acdffdf38c7c29d8a038e467f602e34a4113b8a860e401",
      "transactionIndex": "0x1",
      "blockHash": "0x4d4c0c0821a17ebe1e1a00c020f7ef4a0dde038441ec8295ca7252fc87957226",
      "blockNumber": "0x2adc54a",
      "from": "0x743844f742168e0ace16E747745686bCC247146B",
      "to": null,
      "cumulativeGasUsed": "0x18b9c5",
      "gasUsed": "0x151b03",
      "contractAddress": "0x65839AC8ED06ba60A7fa8E2989bC7cE9a1531502",
      "logs": [
        {
          "address": "0x0000000000000000000000000000000000001010",
          "topics": [
            "0x4dfe1bbbcf077ddc3e01291eea2d5c70c2b422b415d95645b9adcfd678cb1d63",
            "0x0000000000000000000000000000000000000000000000000000000000001010",
            "0x000000000000000000000000743844f742168e0ace16e747745686bcc247146b",
            "0x0000000000000000000000004cefb7df2ff89a05ddd0176de11e01ef0cf7ed84"
          ],
          "data": "0x00000000000000000000000000000000000000000000000000936b99d38f04000000000000000000000000000000000000000000000000000315e4ce07ab85740000000000000000000000000000000000000000000000521533a30ce811c4e500000000000000000000000000000000000000000000000002827934341c817400000000000000000000000000000000000000000000005215c70ea6bba0c8e5",
          "blockHash": "0x4d4c0c0821a17ebe1e1a00c020f7ef4a0dde038441ec8295ca7252fc87957226",
          "blockNumber": "0x2adc54a",
          "transactionHash": "0x1f8e3e91441c4e25c3acdffdf38c7c29d8a038e467f602e34a4113b8a860e401",
          "transactionIndex": "0x1",
          "logIndex": "0x1",
          "removed": false
        }
      ],
      "status": "0x1",
      "logsBloom": "0x00000000000000000000000000000000000000000000000000000000000000000000000000001000000000000000000000008000000000000000000000000000000000000000000000000000000000800000000001000000000100000000000000000001000000000000000000000000000000800000000080000000000000000000000000000020000000000000000000000000000000000000000000000000200000000000000000000000000000000080000000000000000000000000004000000000000000000001000000000000000000000000000000100000000000000000000000000000000000000000000000000000000000000000000000100000",
      "type": "0x2",
      "effectiveGasPrice": "0x6fc23ac10"
    },
    {
      "transactionHash": "0x25b2d8746d5443652c03855c90d98fa6ef0f16d80f2b79648da1d2b6c4336891",
      "transactionIndex": "0x2",
      "blockHash": "0x4d4c0c0821a17ebe1e1a00c020f7ef4a0dde038441ec8295ca7252fc87957226",
      "blockNumber": "0x2adc54a",
      "from": "0x743844f742168e0ace16E747745686bCC247146B",
      "to": "0x8584Fa491eAF3B959dE0888b5B5b9EF60660eb02",
      "cumulativeGasUsed": "0x198ca5",
      "gasUsed": "0xd2e0",
      "contractAddress": null,
      "logs": [
        {
          "address": "0x8584Fa491eAF3B959dE0888b5B5b9EF60660eb02",
          "topics": [
            "0xda919360433220e13b51e8c211e490d148e61a3bd53de8c097194e458b97f3e1",
            "0x000000000000000000000000743844f742168e0ace16e747745686bcc247146b",
            "0x00000000000000000000000065839ac8ed06ba60a7fa8e2989bc7ce9a1531502",
            "0x000000000000000000000000c8c0cf9436f4862a8f60ce680ca5a9f0f99b5ded"
          ],
          "data": "0xffffffffffffffffffffffffffffffffffffffffffffffffffffffffffffffff",
          "blockHash": "0x4d4c0c0821a17ebe1e1a00c020f7ef4a0dde038441ec8295ca7252fc87957226",
          "blockNumber": "0x2adc54a",
          "transactionHash": "0x25b2d8746d5443652c03855c90d98fa6ef0f16d80f2b79648da1d2b6c4336891",
          "transactionIndex": "0x2",
          "logIndex": "0x2",
          "removed": false
        },
        {
          "address": "0x0000000000000000000000000000000000001010",
          "topics": [
            "0x4dfe1bbbcf077ddc3e01291eea2d5c70c2b422b415d95645b9adcfd678cb1d63",
            "0x0000000000000000000000000000000000000000000000000000000000001010",
            "0x000000000000000000000000743844f742168e0ace16e747745686bcc247146b",
            "0x0000000000000000000000004cefb7df2ff89a05ddd0176de11e01ef0cf7ed84"
          ],
          "data": "0x0000000000000000000000000000000000000000000000000005c0f1e24e80000000000000000000000000000000000000000000000000000282793432cad14400000000000000000000000000000000000000000000005215c70ea6bba0c8e5000000000000000000000000000000000000000000000000027cb842507c514400000000000000000000000000000000000000000000005215cccf989def48e5",
          "blockHash": "0x4d4c0c0821a17ebe1e1a00c020f7ef4a0dde038441ec8295ca7252fc87957226",
          "blockNumber": "0x2adc54a",
          "transactionHash": "0x25b2d8746d5443652c03855c90d98fa6ef0f16d80f2b79648da1d2b6c4336891",
          "transactionIndex": "0x2",
          "logIndex": "0x3",
          "removed": false
        }
      ],
      "status": "0x1",
      "logsBloom": "0x00000000000000000000010000000000000000020000000000000000000000000040000000001000000020000000000400008000000000000000000800000000000000000000000000000000000000800000000001000000000100000000100000000001000000000000000000000000000000800000000080000000000000000000000000000020000000000000000000000000000000000000000000000000200000000000000000000020800000000080000000000000000004000000004000000000000000000081000000000000000000000000000000100000000000000000000000000000000000000000000100000000000000000000000000100000",
      "type": "0x2",
      "effectiveGasPrice": "0x6fc23ac10"
    },
    {
      "transactionHash": "0x983d1c21dc0bf96c5018af872ffa38786727a15599a6831771f6711bf2d523a2",
      "transactionIndex": "0x3",
      "blockHash": "0x4d4c0c0821a17ebe1e1a00c020f7ef4a0dde038441ec8295ca7252fc87957226",
      "blockNumber": "0x2adc54a",
      "from": "0x743844f742168e0ace16E747745686bCC247146B",
      "to": "0x65839AC8ED06ba60A7fa8E2989bC7cE9a1531502",
      "cumulativeGasUsed": "0x1a40c6",
      "gasUsed": "0xb421",
      "contractAddress": null,
      "logs": [
        {
          "address": "0x0000000000000000000000000000000000001010",
          "topics": [
            "0x4dfe1bbbcf077ddc3e01291eea2d5c70c2b422b415d95645b9adcfd678cb1d63",
            "0x0000000000000000000000000000000000000000000000000000000000001010",
            "0x000000000000000000000000743844f742168e0ace16e747745686bcc247146b",
            "0x0000000000000000000000004cefb7df2ff89a05ddd0176de11e01ef0cf7ed84"
          ],
          "data": "0x0000000000000000000000000000000000000000000000000004ea2f95892c00000000000000000000000000000000000000000000000000027cb842506f234400000000000000000000000000000000000000000000005215cccf989def48e50000000000000000000000000000000000000000000000000277ce12bae5f74400000000000000000000000000000000000000000000005215d1b9c8337874e5",
          "blockHash": "0x4d4c0c0821a17ebe1e1a00c020f7ef4a0dde038441ec8295ca7252fc87957226",
          "blockNumber": "0x2adc54a",
          "transactionHash": "0x983d1c21dc0bf96c5018af872ffa38786727a15599a6831771f6711bf2d523a2",
          "transactionIndex": "0x3",
          "logIndex": "0x4",
          "removed": false
        }
      ],
      "status": "0x1",
      "logsBloom": "0x00000000000000000000000000000000000000000000000000000000000000000000000000001000000000000000000000008000000000000000000000000000000000000000000000000000000000800000000001000000000100000000000000000001000000000000000000000000000000800000000080000000000000000000000000000020000000000000000000000000000000000000000000000000200000000000000000000000000000000080000000000000000000000000004000000000000000000001000000000000000000000000000000100000000000000000000000000000000000000000000000000000000000000000000000100000",
      "type": "0x2",
      "effectiveGasPrice": "0x6fc23ac10"
    },
    {
      "transactionHash": "0x3e43e2dbb720447092cead182a1d77d758d763c30174a6b7305045542e3200a5",
      "transactionIndex": "0x4",
      "blockHash": "0x4d4c0c0821a17ebe1e1a00c020f7ef4a0dde038441ec8295ca7252fc87957226",
      "blockNumber": "0x2adc54a",
      "from": "0x743844f742168e0ace16E747745686bCC247146B",
      "to": "0x326C977E6efc84E512bB9C30f76E30c160eD06FB",
      "cumulativeGasUsed": "0x1b0b24",
      "gasUsed": "0xca5e",
      "contractAddress": null,
      "logs": [
        {
          "address": "0x326C977E6efc84E512bB9C30f76E30c160eD06FB",
          "topics": [
            "0xddf252ad1be2c89b69c2b068fc378daa952ba7f163c4a11628f55a4df523b3ef",
            "0x000000000000000000000000743844f742168e0ace16e747745686bcc247146b",
            "0x00000000000000000000000065839ac8ed06ba60a7fa8e2989bc7ce9a1531502"
          ],
          "data": "0x0000000000000000000000000000000000000000000000000de0b6b3a7640000",
          "blockHash": "0x4d4c0c0821a17ebe1e1a00c020f7ef4a0dde038441ec8295ca7252fc87957226",
          "blockNumber": "0x2adc54a",
          "transactionHash": "0x3e43e2dbb720447092cead182a1d77d758d763c30174a6b7305045542e3200a5",
          "transactionIndex": "0x4",
          "logIndex": "0x5",
          "removed": false
        },
        {
          "address": "0x0000000000000000000000000000000000001010",
          "topics": [
            "0x4dfe1bbbcf077ddc3e01291eea2d5c70c2b422b415d95645b9adcfd678cb1d63",
            "0x0000000000000000000000000000000000000000000000000000000000001010",
            "0x000000000000000000000000743844f742168e0ace16e747745686bcc247146b",
            "0x0000000000000000000000004cefb7df2ff89a05ddd0176de11e01ef0cf7ed84"
          ],
          "data": "0x00000000000000000000000000000000000000000000000000058584bad128000000000000000000000000000000000000000000000000000277ce12badab53400000000000000000000000000000000000000000000005215d1b9c8337874e50000000000000000000000000000000000000000000000000272488e00098d3400000000000000000000000000000000000000000000005215d73f4cee499ce5",
          "blockHash": "0x4d4c0c0821a17ebe1e1a00c020f7ef4a0dde038441ec8295ca7252fc87957226",
          "blockNumber": "0x2adc54a",
          "transactionHash": "0x3e43e2dbb720447092cead182a1d77d758d763c30174a6b7305045542e3200a5",
          "transactionIndex": "0x4",
          "logIndex": "0x6",
          "removed": false
        }
      ],
      "status": "0x1",
      "logsBloom": "0x00000000000000040000010000000000000000000000000000000000000000000040000000001000000000000000000000008000000000000000000000000000000000000000000000000008000000800000000001000000000100000000000000000001000000000000000000000000000000800000000080000010000000000000000000000020000000000000000000000000000000000000000000000000200000000000000000000000000000000080000000000000000000000000004000000002000000000081000000000000000000000000000000100000000000000800000000000000001000000000000000000000000000000000000000100000",
      "type": "0x2",
      "effectiveGasPrice": "0x6fc23ac10"
    }
  ],
  "libraries": [],
  "pending": [],
  "returns": {},
  "timestamp": 1705681944,
  "chain": 80001,
  "multi": false,
  "commit": "0330bc7"
}